{
  "contractName": "Funder",
  "abi": [
    {
      "inputs": [],
      "name": "noOfFunders",
      "outputs": [
        {
          "internalType": "uint256",
          "name": "",
          "type": "uint256"
        }
      ],
      "stateMutability": "view",
      "type": "function",
      "constant": true
    },
    {
      "stateMutability": "payable",
      "type": "receive",
      "payable": true
    },
    {
      "inputs": [],
      "name": "transfer",
      "outputs": [],
      "stateMutability": "payable",
      "type": "function",
      "payable": true
    },
    {
      "inputs": [
        {
          "internalType": "uint256",
          "name": "_amount",
          "type": "uint256"
        }
      ],
      "name": "withdraw",
      "outputs": [],
      "stateMutability": "nonpayable",
      "type": "function"
    }
  ],
  "bytecode": "0x608060405234801561001057600080fd5b50610366806100206000396000f3fe6080604052600436106100385760003560e01c80632e1a7d4d1461004457806347cac45c1461006d5780638a4068dd146100985761003f565b3661003f57005b600080fd5b34801561005057600080fd5b5061006b600480360381019061006691906101e4565b6100a2565b005b34801561007957600080fd5b50610082610137565b60405161008f9190610220565b60405180910390f35b6100a061013d565b005b671bc16d674ec800008111156100ed576040517f08c379a00000000000000000000000000000000000000000000000000000000081526004016100e490610298565b60405180910390fd5b3373ffffffffffffffffffffffffffffffffffffffff166108fc829081150290604051600060405180830381858888f19350505050158015610133573d6000803e3d6000fd5b5050565b60005481565b33600160008054815260200190815260200160002060006101000a81548173ffffffffffffffffffffffffffffffffffffffff021916908373ffffffffffffffffffffffffffffffffffffffff1602179055506000808154809291906101a2906102e7565b9190505550565b600080fd5b6000819050919050565b6101c1816101ae565b81146101cc57600080fd5b50565b6000813590506101de816101b8565b92915050565b6000602082840312156101fa576101f96101a9565b5b6000610208848285016101cf565b91505092915050565b61021a816101ae565b82525050565b60006020820190506102356000830184610211565b92915050565b600082825260208201905092915050565b7f5769746864726177206d6f7265207468616e2074776f20657468657200000000600082015250565b6000610282601c8361023b565b915061028d8261024c565b602082019050919050565b600060208201905081810360008301526102b181610275565b9050919050565b7f4e487b7100000000000000000000000000000000000000000000000000000000600052601160045260246000fd5b60006102f2826101ae565b91507fffffffffffffffffffffffffffffffffffffffffffffffffffffffffffffffff821415610325576103246102b8565b5b60018201905091905056fea26469706673582212202d687f235af3ae426975f1dd88f114d70ee77e528dd598bbeb5327272dd96f8c64736f6c63430008090033",
  "immutableReferences": {},
  "source": "// SPDX-License-Identifier: MIT\npragma solidity ^0.8.9;\n\ncontract Funder {\n    uint public noOfFunders;\n    mapping(uint => address) private funders;\n\n    function transfer() external payable {\n        funders[noOfFunders] = msg.sender;\n        noOfFunders++;\n    }\n\n    function withdraw(uint _amount) external {\n        require(_amount <= 2000000000000000000, \"Withdraw more than two ether\");\n        payable(msg.sender).transfer(_amount);\n    }\n\n    receive() external payable {}\n}\n",
  "sourcePath": "/home/pratima/hh-fcc/fund/contracts/Funder.sol",
  "compiler": {
    "name": "solc",
    "version": "0.8.9+commit.e5eed63a.Emscripten.clang"
  },
  "schemaVersion": "3.4.16",
  "updatedAt": "2023-10-25T12:32:18.845Z",
  "networkType": "ethereum",
  "devdoc": {
    "kind": "dev",
    "methods": {},
    "version": 1
  },
  "userdoc": {
    "kind": "user",
    "methods": {},
    "version": 1
  }
}